:020000040800F2
:100000009811002001010008450400083D04000883
:10001000410400086D010008C1090008000000004B
:1000200000000000000000000000000005060008BD
:100030001503000800000000CD040008F1060008C8
:100040001B0100081B0100081B0100081B01000820
:100050001B0100081B0100081B0100081B01000810
:100060001B0100081B0100081B0100081B01000800
:100070001B0100081B0100081B0100081B010008F0
:100080001B0100081B0100081B0100081B010008E0
:100090001B0100081B0100081B0100081B010008D0
:1000A0001B0100081B0100081B0100081B010008C0
:1000B0001B0100081B0100081B0100081B010008B0
:1000C0001B0100081B0100081B0100081B010008A0
:1000D0001B01000855070008A10700081B010008C4
:1000E0001B0100081B0100081B010008DFF80CD0F1
:1000F00000F02AF800480047390A0008981100204B
:100100000648804706480047FEE7FEE7FEE7FEE7B1
:10011000FEE7FEE7FEE7FEE7FEE7FEE7F50600087E
:10012000ED000008D2B201E000F8012B491EFBD21D
:1001300070470022F6E710B513460A4604461946F2
:10014000FFF7F0FF204610BD064C074D06E0E068C3
:1001500040F0010394E8070098471034AC42F6D30E
:10016000FFF7C8FFA40D0008C40D000800BFFEE79C
:1001700021B1026842F00102026004E002684FF619
:10018000FE731A400260704701684FF6FE7211401C
:1001900001600021016041608160C1604B4988427B
:1001A00008D14A490839496841F00F01474A083ADD
:1001B00051608AE045491431884208D143490839E1
:1001C000496841F0F001414A083A51607DE03F49F9
:1001D0002831884208D13D490839496841F47061A5
:1001E0003A4A083A516070E038493C31884208D1B7
:1001F00036490839496841F47041344A083A516037
:1002000063E032495031884208D1304908394968A1
:1002100041F470212D4A083A516056E02B4964316F
:10022000884208D129490839496841F47001274AB0
:10023000083A516049E025497831884208D123497C
:100240000839496841F07061204A083A51603CE041
:100250001F49884206D1011F096841F00F01021FA2
:10026000116032E01A491431884208D11849091F37
:10027000096841F0F001164A121F116025E0144987
:100280002831884208D11249091F096841F4706178
:100290000F4A121F116018E00D493C31884208D105
:1002A0000B49091F096841F47041094A121F116086
:1002B0000BE007495031884207D10549091F0968F9
:1002C00041F47021024A121F116070470800024079
:1002D0000804024010B50022026847F6F0739A4302
:1002E0000C6A8B6823430C6923434C6923438C6954
:1002F0002343CC6923434C6A23438C6A23431A4328
:100300000260CB6843600B6883604B68C36010BDBC
:100310004160704770472DE9F041024600250026F4
:10032000002000230024002791F803C00CF00F05E3
:1003300091F803C00CF0100CBCF1000F03D091F841
:1003400002C04CEA050591F800C0BCF1000F31D0A5
:10035000146800202BE04FF0010C0CFA00F3B1F808
:1003600000C00CEA03069E4220D183004FF00F0C20
:100370000CFA03F7BC4305FA03FC4CEA040491F8B9
:1003800003C0BCF1280F06D14FF0010C0CFA00FCA1
:10039000C2F814C00AE091F803C0BCF1480F05D1BF
:1003A0004FF0010C0CFA00FCC2F810C0401C0828E9
:1003B000D1D31460B1F800C0BCF1FF0F34DD546834
:1003C00000202EE000F1080C4FF0010808FA0CF3B1
:1003D000B1F800C00CEA03069E4221D183004FF021
:1003E0000F0C0CFA03F7BC4305FA03FC4CEA0404B7
:1003F00091F803C0BCF1280F05D100F1080C08FAF0
:100400000CF8C2F8148091F803C0BCF1480F07D172
:1004100000F1080C4FF0010808FA0CF8C2F810803F
:10042000401C0828CED35460BDE8F0814FF6FF7120
:100430000180022181700421C170704700BFFEE776
:1004400000BFFEE77047000070B5002100230F22B7
:10045000C47804B3154C246804F4E064C4F5E06483
:10046000210AC1F10403CA40447804FA03F18478F4
:100470001440214309010E4C0678A155047804F07C
:100480001F050124AC4005786D11AD0005F1E02594
:10049000C5F8004109E0047804F01F050124AC40D0
:1004A000044D0678761145F8264070BD0CED00E04D
:1004B00000E400E080E100E002490143024A1160EB
:1004C000704700000000FA050CED00E070470000E6
:1004D00029B1064A52690243044B5A6104E0034AB7
:1004E00052698243014B5A6170470000001002407C
:1004F00029B1064AD2690243044BDA6104E0034A97
:10050000D2698243014BDA6170470000001002405B
:1005100029B1064A92690243044B9A6104E0034AF6
:1005200092698243014B9A617047000000100240BB
:1005300030B500210022002400232D4D6D6805F008
:100540000C0121B1042905D0082923D105E0294D4A
:10055000056022E0274D05601FE0254D6D6805F41C
:100560007012234D6D6805F48034022505EB92422C
:100570001CB9214D554305600BE01D4D6D6805F418
:1005800000351DB11C4D5543056002E0194D554322
:10059000056002E0174D056000BF00BF144D6D6897
:1005A00005F0F0010909154D6B5C0568DD404560FB
:1005B0000F4D6D6805F4E061090A104D6B5C4568EC
:1005C000DD4085600A4D6D6805F46051C90A0B4D28
:1005D0006B5C4568DD40C560054D6D6805F44041C4
:1005E000890B074D6B5CC568B5FBF3F5056130BD44
:1005F0000010024000127A0000093D0000000020B7
:1006000010000020704710B500F002F810BD000087
:100610000CB50020019000903348006840F4803011
:100620003149086000BF3048006800F40030009095
:100630000198401C0190009818B90198B0F5A06F7E
:10064000F1D12948006800F4003010B10120009079
:1006500001E0002000900098012843D12348006861
:1006600040F01000214908600846006820F00300AF
:1006700008600846006840F0020008601A484068B8
:10068000194948600846406848600846406840F498
:10069000806048600846406820F47C104860084646
:1006A000406840F4E81048600846006840F08070F8
:1006B000086000BF0C48006800F000700028F9D006
:1006C0000948406820F00300074948600846406830
:1006D00040F00200486000BF0348406800F00C0092
:1006E0000828F9D10CBD0000001002400020024093
:1006F0007047000010B51348006840F00100114930
:10070000086008464068104908400E49486008469D
:1007100000680E4908400B4908600846006820F44C
:10072000802008600846406820F4FE0048604FF4CE
:100730001F008860FFF767FF4FF000600449086002
:1007400010BD0000001002400000FFF8FFFFF6FEA1
:1007500008ED00E010B500BF40F224410D4800F064
:1007600063F8B0B10B480088C4B20A48001D008885
:10077000C4B200210848FFF7FBFC80210748FFF7BF
:10078000D8FC80210448FFF7C3FD01210248FFF790
:10079000EFFC10BD0038014058000240980C0020CA
:1007A00010B500BF40F224410C4800F03DF898B16C
:1007B0000A480088C4B20948001D0088C4B200215C
:1007C0000748FFF7D5FC4FF4C8610548FFF7A0FDC7
:1007D00001210348FFF7CCFC10BD0000004400409D
:1007E0006C00024021B1828942F40052828104E00F
:1007F00082894DF6FF731A40828170471AB1838A4D
:100800000B43838202E0838A8B43838270470246D4
:100810000020B1F5007F00D100BF13880B400BB161
:10082000012000E00020704770B50246002400233C
:100830000025002040F66A16B14200D100BFC1F386
:10084000421501F01F03012606FA03F3012D02D120
:100850009689334006E0022D02D1168A334001E02A
:10086000968A33400C12012606FA04F416883440A6
:1008700013B10CB1012000E0002070BDF0B50346BB
:10088000002400260025002040F66A17B94200D156
:1008900000BF1846C1F3421401F01F06012707FAF2
:1008A00006F5012C01D10C3004E0022C01D11030EE
:1008B00000E014301AB107682F43076002E00768B0
:1008C000AF430760F0BD00002DE9F04786B0054654
:1008D0000E460024A24600BFA1460027B08900B101
:1008E00000BF2F462C8A4CF6FF700440F08804436A
:1008F0002C82AC894EF6F3100440B088318908434D
:10090000718908430443AC81AC8A4FF6FF40044030
:10091000B0890443AC8201A8FFF70AFE1F48874252
:1009200002D1DDF810A001E0DDF80CA0A88900F4E8
:10093000004040B10AEBCA0000EB0A1031684900E0
:10094000B0FBF1F807E00AEBCA0000EB0A103168CF
:100950008900B0FBF1F86420B8FBF0F00401200935
:10096000642101FB1089A88900F4004040B13220C5
:1009700000EBC900B0FBF1F000F00700044308E011
:10098000322000EB09106421B0FBF1F000F00F0001
:1009900004432C8106B0BDE8F08700000038014018
:1009A000C1F30802828070474FF4165101600021A4
:1009B0008180C18001810C214181002181817047AA
:1009C00000BFFEE7014A024900F013B8150A00080B
:1009D0001400002002E008C8121F08C1002AFAD142
:1009E00070477047002001E001C1121F002AFBD1AF
:1009F00070472DE9F04116460F460446002503E0F6
:100A00003946B047641C6D1C20780028F8D1284670
:100A1000BDE8F08170B504460D46E1B20548FFF728
:100A2000BFFF00BF40210348FFF7F1FE0028F9D0C7
:100A3000204670BD003801404FF4E13000F0E2F88C
:100A40004FF4E13000F00EF802E002A0FFF7BAFF29
:100A5000FBE7000048454C4C4F2C20574F524C446C
:100A60000A00000010B592B0044601218803FFF788
:100A70004FFD01210420FFF74BFD01210846FFF740
:100A800047FD01210846FFF723FD06A8FFF7CEFC2E
:100A90004FF40070ADF8180003208DF81A001820EC
:100AA0008DF81B0006A95248FFF735FC4FF4806013
:100AB000ADF8180004208DF81B0006A94C48FFF77C
:100AC0002AFC02A8FFF770FF02940020ADF80C008A
:100AD000ADF80E00ADF81000ADF814000C20ADF824
:100AE000120002A94348FFF7EFFE002240F2255111
:100AF0004048FFF7C3FE002240F226613D48FFF761
:100B0000BDFE012240F224413A48FFF7B7FE3A48C1
:100B1000FFF73AFB3748001D07903848089000203F
:100B2000099080200A9000200B9080200C900020DB
:100B30000D900E900F904FF44050109000201190A7
:100B400007A92D48FFF7C6FB01212B48FFF710FB33
:100B500001200A9010200990002011902848089048
:100B600000200E9080200C9000200F902148001D46
:100B7000079000200D900B904FF4005010901E48ED
:100B80001438FFF701FB07A91B481438FFF7A2FB35
:100B9000012119481438FFF7EBFA4FF4A060FFF772
:100BA0008BFC25208DF8040000208DF80500012025
:100BB0008DF806008DF8070001A8FFF745FC01221B
:100BC00040210C48FFF71AFE012280210948FFF757
:100BD00015FE01210748FFF705FE80210748FFF7B2
:100BE000A8FA80210648FFF7A4FA12B010BD000051
:100BF000000801400038014058000240980C0020D5
:100C0000180D002010B592B0044601214804FFF7EA
:100C10006FFC01210420FFF77BFC01210846FFF750
:100C200077FC01210846FFF753FC06A8FFF7FEFBFF
:100C30000420ADF8180003208DF81A0018208DF854
:100C40001B0006A95248FFF766FB0820ADF8180004
:100C500004208DF81B0006A94D48FFF75CFB02A895
:100C6000FFF7A2FE02940020ADF80C00ADF80E00D4
:100C7000ADF81000ADF814000C20ADF8120002A978
:100C80004448FFF721FE002240F225514148FFF77A
:100C9000F5FD002240F226613E48FFF7EFFD0122FC
:100CA00040F224413B48FFF7E9FD3B48FFF76CFA6F
:100CB0003848001D079039480890002009904FF4EB
:100CC000C8600A9000200B9080200C9000200D90AE
:100CD0000E900F904FF4405010900020119007A9F3
:100CE0002D48FFF7F7FA01212B48FFF741FA0120C1
:100CF0000A901020099000201190294808900020A7
:100D00000E9080200C9000200F902248001D07902C
:100D100000200D900B904FF4005010901E4814309E
:100D2000FFF732FA07A91C481430FFF7D3FA012164
:100D300019481430FFF71CFA4FF4A060FFF7BCFB12
:100D400026208DF8040001208DF805008DF806009E
:100D50008DF8070001A8FFF777FB012240210D481D
:100D6000FFF74CFD012280210A48FFF747FD0121D2
:100D70000848FFF737FD4FF4C8610848FFF7D9F975
:100D80004FF4C8610648FFF7D4F912B010BD000057
:100D900000080140004400406C00024018000020A0
:100DA00058060020C40D00080000002018000000B4
:100DB000D4090008DC0D0008180000208011000094
:100DC000E40900080000000001020304010203041A
:0C0DD000060708090204060800000000E5
:04000005080000ED02
:00000001FF
